{
  "contractName": "TestRosetta",
  "abi": [
    {
      "inputs": [],
      "stateMutability": "nonpayable",
      "type": "constructor"
    },
    {
      "anonymous": false,
      "inputs": [
        {
          "indexed": false,
          "internalType": "bool",
          "name": "success",
          "type": "bool"
        }
      ],
      "name": "InteralCalled",
      "type": "event"
    },
    {
      "stateMutability": "payable",
      "type": "receive",
      "payable": true
    },
    {
      "inputs": [],
      "name": "newContractTwiceAndCall",
      "outputs": [],
      "stateMutability": "nonpayable",
      "type": "function"
    },
    {
      "inputs": [],
      "name": "newAndDestoryContract",
      "outputs": [],
      "stateMutability": "nonpayable",
      "type": "function"
    },
    {
      "inputs": [
        {
          "internalType": "uint256[]",
          "name": "value",
          "type": "uint256[]"
        }
      ],
      "name": "setSlots",
      "outputs": [],
      "stateMutability": "nonpayable",
      "type": "function"
    },
    {
      "inputs": [
        {
          "internalType": "address",
          "name": "receiver",
          "type": "address"
        }
      ],
      "name": "destroy",
      "outputs": [],
      "stateMutability": "nonpayable",
      "type": "function"
    },
    {
      "inputs": [
        {
          "internalType": "address",
          "name": "a",
          "type": "address"
        },
        {
          "internalType": "uint256",
          "name": "amount",
          "type": "uint256"
        }
      ],
      "name": "transferCfx",
      "outputs": [],
      "stateMutability": "payable",
      "type": "function",
      "payable": true
    },
    {
      "inputs": [],
      "name": "mustInternalFail",
      "outputs": [],
      "stateMutability": "nonpayable",
      "type": "function"
    },
    {
      "inputs": [],
      "name": "mustInternalOk",
      "outputs": [],
      "stateMutability": "payable",
      "type": "function",
      "payable": true
    }
  ],
  "bytecode": "0x608060405234801561001057600080fd5b506040805160018082528183019092526000916020808301908036833701905050905060008160008151811061005657634e487b7160e01b600052603260045260246000fd5b6001600160a01b0390921660209283029190910190910152604051630809469f60e11b8152730888000000000000000000000000000000000001906310128d3e906100a59084906004016100dd565b600060405180830381600087803b1580156100bf57600080fd5b505af11580156100d3573d6000803e3d6000fd5b505050505061012a565b6020808252825182820181905260009190848201906040850190845b8181101561011e5783516001600160a01b0316835292840192918401916001016100f9565b50909695505050505050565b6108ba806101396000396000f3fe6080604052600436106100735760003560e01c80638269cdb51161004e5780638269cdb5146100cb578063a49afc80146100de578063a5050b95146100e6578063eac53cdc146101065761007a565b8062f55d9d1461007f5780635c57af27146100a1578063703c86bd146100b65761007a565b3661007a57005b600080fd5b34801561008b57600080fd5b5061009f61009a3660046104f1565b61011b565b005b3480156100ad57600080fd5b5061009f610128565b3480156100c257600080fd5b5061009f610223565b61009f6100d9366004610512565b6102a6565b61009f6102d2565b3480156100f257600080fd5b5061009f61010136600461053b565b61037d565b34801561011257600080fd5b5061009f61039f565b806001600160a01b038116ff5b60006040516101369061045c565b604051809103906000f080158015610152573d6000803e3d6000fd5b5060408051600481526024810182526020810180516001600160e01b03166348e2f56760e11b17905290519192506000916001600160a01b03841691670de0b6b3a7640000916101a291906105f5565b60006040518083038185875af1925050503d80600081146101df576040519150601f19603f3d011682016040523d82523d6000602084013e6101e4565b606091505b505090507fd4a0e69e3df1c5e9d4176f0e24133ad48f7014f677d493c72275f488a4822b5b81604051610217919061062e565b60405180910390a15050565b600060405161023190610469565b604051809103906000f08015801561024d573d6000803e3d6000fd5b509050806001600160a01b0316636bdebcc96040518163ffffffff1660e01b8152600401600060405180830381600087803b15801561028b57600080fd5b505af115801561029f573d6000803e3d6000fd5b5050505050565b60405182906001600160a01b0382169083156108fc029084906000818181858888f15050505050505050565b670de0b6b3a76400003410156103035760405162461bcd60e51b81526004016102fa9061064d565b60405180910390fd5b60006040516103119061045c565b604051809103906000f08015801561032d573d6000803e3d6000fd5b5060408051600481526024810182526020810180516001600160e01b03166382b9d18d60e01b17905290519192506000916001600160a01b03841691670de0b6b3a7640000916101a291906105f5565b33600090815260208181526040909120825161039b92840190610475565b5050565b60006040516103ad90610469565b604051809103906000f0801580156103c9573d6000803e3d6000fd5b50905060006040516103da9061045c565b604051809103906000f0801580156103f6573d6000803e3d6000fd5b506040516306a9882760e01b81529091506001600160a01b038216906306a9882790610426908590600401610639565b600060405180830381600087803b15801561044057600080fd5b505af1158015610454573d6000803e3d6000fd5b505050505050565b6101428061069b83390190565b60a8806107dd83390190565b8280548282559060005260206000209081019282156104b0579160200282015b828111156104b0578251825591602001919060010190610495565b506104bc9291506104c0565b5090565b5b808211156104bc57600081556001016104c1565b80356001600160a01b03811681146104ec57600080fd5b919050565b600060208284031215610502578081fd5b61050b826104d5565b9392505050565b60008060408385031215610524578081fd5b61052d836104d5565b946020939093013593505050565b6000602080838503121561054d578182fd5b823567ffffffffffffffff80821115610564578384fd5b818501915085601f830112610577578384fd5b81358181111561058957610589610684565b838102604051858282010181811085821117156105a8576105a8610684565b604052828152858101935084860182860187018a10156105c6578788fd5b8795505b838610156105e85780358552600195909501949386019386016105ca565b5098975050505050505050565b60008251815b8181101561061557602081860181015185830152016105fb565b818111156106235782828501525b509190910192915050565b901515815260200190565b6001600160a01b0391909116815260200190565b60208082526019908201527f6d75737420706179206174206c65617374203120657468657200000000000000604082015260600190565b634e487b7160e01b600052604160045260246000fdfe608060405234801561001057600080fd5b50610122806100206000396000f3fe60806040526004361060305760003560e01c806306a9882714603557806382b9d18d14605257806391c5eace146058575b600080fd5b348015604057600080fd5b506050604c36600460c0565b606a565b005b605060be565b348015606357600080fd5b5060506030565b806001600160a01b031663c29855786040518163ffffffff1660e01b8152600401600060405180830381600087803b15801560a457600080fd5b505af115801560b7573d6000803e3d6000fd5b5050505050565b565b60006020828403121560d0578081fd5b81356001600160a01b038116811460e5578182fd5b939250505056fea26469706673582212207281191c339cae2e8d7d4c57e2c7d20bbdd8a91ad2c4ab72634a3a09321c266d64736f6c634300080000336080604052348015600f57600080fd5b50608a8061001e6000396000f3fe6080604052348015600f57600080fd5b5060043610603c5760003560e01c80636bdebcc9146041578063c2985578146049578063f1fdece4146049575b600080fd5b6047604f565b005b60476052565b33ff5b56fea264697066735822122072b28d818017209dd625ddd878a90901ffc89e7fac1e2b8d37fa3f048c2aa42564736f6c63430008000033a2646970667358221220310b327b0c22e004bf722244d6ae1936ee15d0f8b7305cd5ec7cc19bbb5f270f64736f6c63430008000033",
  "immutableReferences": {},
  "source": "// SPDX-License-Identifier: MIT\npragma solidity >=0.4.22 <0.9.0;\nimport \"@confluxfans/contracts/internalContracts/InternalContractsLib.sol\";\n\ncontract TestTraceA {\n    function callB(TestTraceB b) public {\n        b.foo();\n    }\n\n    function mustRevert() public {\n        revert();\n    }\n\n    function mustOk() payable public {\n    }\n}\n\ncontract TestTraceB {\n    function fooPure() public pure {}\n\n    function foo() public {}\n\n    function destory() public {\n        selfdestruct(payable(msg.sender));\n    }\n}\n\ncontract TestRosetta {\n    event InteralCalled(bool success);\n\n    constructor() {\n        address[] memory whitelist = new address[](1);\n        whitelist[0] = address(0);\n        InternalContracts.SPONSOR_CONTROL.addPrivilege(whitelist);\n    }\n\n    receive() external payable {}\n\n    mapping(address => uint256[]) slots;\n\n    function newContractTwiceAndCall() public {\n        TestTraceB b = new TestTraceB();\n        TestTraceA a = new TestTraceA();\n        a.callB(b);\n    }\n\n    function newAndDestoryContract() public {\n        TestTraceB b = new TestTraceB();\n        b.destory();\n    }\n\n    function setSlots(uint256[] memory value) public {\n        slots[msg.sender] = value;\n    }\n\n    function destroy(address receiver) public {\n        address payable target = payable(receiver);\n        selfdestruct(target);\n    }\n\n    function transferCfx(address a, uint256 amount) public payable {\n        address payable target = payable(a);\n        //maybe fail but not revert\n        target.send(amount);\n    }\n\n    function mustInternalFail() public {\n        TestTraceA a = new TestTraceA();\n        (bool callResult, ) = address(a).call{value: 1 ether}(\n            abi.encodeWithSignature(\"mustRevert()\")\n        );\n        emit InteralCalled(callResult);\n    }\n\n    function mustInternalOk() public payable {\n        require(msg.value >= 1 ether, \"must pay at least 1 ether\");\n        TestTraceA a = new TestTraceA();\n        (bool callResult, ) = address(a).call{value: 1 ether}(\n            abi.encodeWithSignature(\"mustOk()\")\n        );\n        emit InteralCalled(callResult);\n    }\n}\n",
  "sourcePath": "/Users/wangdayong/myspace/mytemp/demo-truffle/contracts/TestRosetta.sol",
  "compiler": {
    "name": "solc",
    "version": "0.8.0+commit.c7dfd78e.Emscripten.clang"
  },
  "schemaVersion": "3.3.4",
  "updatedAt": "2021-12-22T09:33:38.675Z",
  "networkType": "conflux",
  "devdoc": {
    "kind": "dev",
    "methods": {},
    "version": 1
  },
  "userdoc": {
    "kind": "user",
    "methods": {},
    "version": 1
  }
}