{
  "contractName": "TestRosetta",
  "abi": [
    {
      "inputs": [],
      "stateMutability": "nonpayable",
      "type": "constructor"
    },
    {
      "stateMutability": "payable",
      "type": "receive"
    },
    {
      "inputs": [],
      "name": "newContractTwiceAndCall",
      "outputs": [],
      "stateMutability": "nonpayable",
      "type": "function"
    },
    {
      "inputs": [],
      "name": "newAndDestoryContract",
      "outputs": [],
      "stateMutability": "nonpayable",
      "type": "function"
    },
    {
      "inputs": [
        {
          "internalType": "uint256[]",
          "name": "value",
          "type": "uint256[]"
        }
      ],
      "name": "setSlots",
      "outputs": [],
      "stateMutability": "nonpayable",
      "type": "function"
    },
    {
      "inputs": [
        {
          "internalType": "address",
          "name": "receiver",
          "type": "address"
        }
      ],
      "name": "destroy",
      "outputs": [],
      "stateMutability": "nonpayable",
      "type": "function"
    },
    {
      "inputs": [
        {
          "internalType": "address",
          "name": "a",
          "type": "address"
        },
        {
          "internalType": "uint256",
          "name": "amount",
          "type": "uint256"
        }
      ],
      "name": "transferCfx",
      "outputs": [],
      "stateMutability": "payable",
      "type": "function"
    }
  ],
  "bytecode": "0x608060405234801561001057600080fd5b506040805160018082528183019092526000916020808301908036833701905050905060008160008151811061005657634e487b7160e01b600052603260045260246000fd5b6001600160a01b0390921660209283029190910190910152604051630809469f60e11b8152730888000000000000000000000000000000000001906310128d3e906100a59084906004016100dd565b600060405180830381600087803b1580156100bf57600080fd5b505af11580156100d3573d6000803e3d6000fd5b505050505061012a565b6020808252825182820181905260009190848201906040850190845b8181101561011e5783516001600160a01b0316835292840192918401916001016100f9565b50909695505050505050565b610627806101396000396000f3fe60806040526004361061004d5760003560e01c8062f55d9d14610059578063703c86bd1461007b5780638269cdb514610090578063a5050b95146100a3578063eac53cdc146100c357610054565b3661005457005b600080fd5b34801561006557600080fd5b50610079610074366004610308565b6100d8565b005b34801561008757600080fd5b506100796100e5565b61007961009e366004610329565b610168565b3480156100af57600080fd5b506100796100be366004610352565b610194565b3480156100cf57600080fd5b506100796101b6565b806001600160a01b038116ff5b60006040516100f390610273565b604051809103906000f08015801561010f573d6000803e3d6000fd5b509050806001600160a01b0316636bdebcc96040518163ffffffff1660e01b8152600401600060405180830381600087803b15801561014d57600080fd5b505af1158015610161573d6000803e3d6000fd5b5050505050565b60405182906001600160a01b0382169083156108fc029084906000818181858888f15050505050505050565b3360009081526020818152604090912082516101b29284019061027f565b5050565b60006040516101c490610273565b604051809103906000f0801580156101e0573d6000803e3d6000fd5b50905060006040516101f1906102ca565b604051809103906000f08015801561020d573d6000803e3d6000fd5b506040516306a9882760e01b81529091506001600160a01b038216906306a988279061023d90859060040161040c565b600060405180830381600087803b15801561025757600080fd5b505af115801561026b573d6000803e3d6000fd5b505050505050565b60a88061043783390190565b8280548282559060005260206000209081019282156102ba579160200282015b828111156102ba57825182559160200191906001019061029f565b506102c69291506102d7565b5090565b610113806104df83390190565b5b808211156102c657600081556001016102d8565b80356001600160a01b038116811461030357600080fd5b919050565b600060208284031215610319578081fd5b610322826102ec565b9392505050565b6000806040838503121561033b578081fd5b610344836102ec565b946020939093013593505050565b60006020808385031215610364578182fd5b823567ffffffffffffffff8082111561037b578384fd5b818501915085601f83011261038e578384fd5b8135818111156103a0576103a0610420565b838102604051858282010181811085821117156103bf576103bf610420565b604052828152858101935084860182860187018a10156103dd578788fd5b8795505b838610156103ff5780358552600195909501949386019386016103e1565b5098975050505050505050565b6001600160a01b0391909116815260200190565b634e487b7160e01b600052604160045260246000fdfe6080604052348015600f57600080fd5b50608a8061001e6000396000f3fe6080604052348015600f57600080fd5b5060043610603c5760003560e01c80636bdebcc9146041578063c2985578146049578063f1fdece4146049575b600080fd5b6047604f565b005b60476052565b33ff5b56fea264697066735822122097d75e15ba2d13e86475e47ecddc58a07ccfb9e33502044818d4a82ef8a9861664736f6c63430008000033608060405234801561001057600080fd5b5060f48061001f6000396000f3fe6080604052348015600f57600080fd5b506004361060285760003560e01c806306a9882714602d575b600080fd5b603c60383660046092565b603e565b005b806001600160a01b031663c29855786040518163ffffffff1660e01b8152600401600060405180830381600087803b158015607857600080fd5b505af1158015608b573d6000803e3d6000fd5b5050505050565b60006020828403121560a2578081fd5b81356001600160a01b038116811460b7578182fd5b939250505056fea26469706673582212208530ff97090c531e795b5f70eae4245093dfd60f8b36df9424ec2ffac2ae11e264736f6c63430008000033a26469706673582212207ccac7d6187944eca35e301bee2006f8318feb05669750ad2ce9333ce33885b564736f6c63430008000033",
  "immutableReferences": {},
  "source": "// SPDX-License-Identifier: MIT\npragma solidity >=0.4.22 <0.9.0;\nimport \"@confluxfans/contracts/internalContracts/InternalContractsLib.sol\";\n\ncontract TestTraceA {\n    function callB(TestTraceB b) public {\n        b.foo();\n    }\n}\n\ncontract TestTraceB {\n    function fooPure() public pure {}\n\n    function foo() public {}\n\n    function destory() public {\n        selfdestruct(payable(msg.sender));\n    }\n}\n\ncontract TestRosetta {\n    constructor() {\n        address[] memory whitelist = new address[](1);\n        whitelist[0] = address(0);\n        InternalContracts.SPONSOR_CONTROL.addPrivilege(whitelist);\n    }\n\n    receive() external payable {}\n\n    mapping(address => uint256[]) slots;\n\n    function newContractTwiceAndCall() public {\n        TestTraceB b = new TestTraceB();\n        TestTraceA a = new TestTraceA();\n        a.callB(b);\n    }\n\n    function newAndDestoryContract() public {\n        TestTraceB b = new TestTraceB();\n        b.destory();\n    }\n\n    function setSlots(uint256[] memory value) public {\n        slots[msg.sender] = value;\n    }\n\n    function destroy(address receiver) public {\n        address payable target = payable(receiver);\n        selfdestruct(target);\n    }\n\n    function transferCfx(address a, uint amount) public payable {\n        address payable target = payable(a);\n        //maybe fail but not revert\n        target.send(amount);\n    }\n}\n",
  "sourcePath": "/Users/wangdayong/myspace/mytemp/demo-truffle/contracts/TestTrace.sol",
  "compiler": {
    "name": "solc",
    "version": "0.8.0+commit.c7dfd78e.Emscripten.clang"
  },
  "schemaVersion": "3.4.1",
  "updatedAt": "2021-12-20T10:54:33.344Z",
  "devdoc": {
    "kind": "dev",
    "methods": {},
    "version": 1
  },
  "userdoc": {
    "kind": "user",
    "methods": {},
    "version": 1
  }
}